:100000000C9434000C9451000C9451000C94510049
:100010000C9451000C9451000C9451000C9451001C
:100020000C9451000C9451000C9451000C9451000C
:100030000C9451000C9451000C9451000C945100FC
:100040000C9451000C9451000C9451000C945100EC
:100050000C9451000C9451000C9451000C945100DC
:100060000C9451000C94510011241FBECFEFD8E026
:10007000DEBFCDBF13E0A0E0B1E0E6E4F8E002C0EF
:1000800005900D92A43FB107D9F723E0A4EFB3E0A8
:1000900001C01D92AA3FB207E1F70E9493000C94A1
:1000A00021040C9400008093BB0084E88093BC0082
:1000B000ECEBF0E080818823ECF7089584EC8093EA
:1000C000BC00ECEBF0E080818823ECF78091BB0072
:1000D00008950F931F93CF93FC018081882359F0DB
:1000E0008F01C0E00E945300CF5FF801EC0FF11DBB
:1000F00080818111F7CFCF911F910F910895CF93F8
:10010000DF9380E091E00E94CE02FC0120812A3042
:1001100039F0EC010E945E00899388818A30D1F722
:10012000DF91CF9108951AB884B5836884BD85B5F1
:10013000816085BD86EE87BDEBE6F0E08081816061
:100140008083E8E6F0E0808184608083789483EBAC
:1001500090E09093F5038093F403E091F403F09121
:10016000F5030995FACF86E091E00E94690082E1EB
:1001700091E00E94690085E291E00E94690089E3B4
:1001800091E00E9469000E945E00843681F083370E
:1001900039F0813699F48BE491E00E94690008956A
:1001A00083EE90E09093F5038093F40308958FE13C
:1001B00091E09093F5038093F40308958AE591E02C
:1001C0000E94690008958BE791E00E9469008BE826
:1001D00091E00E94690087E991E00E94690088EA45
:1001E00091E00E9469000E945E00823381F08D36AA
:1001F000D1F08133F9F483B7817F866083BF83B701
:10020000816083BF889583B78E7F83BF089583B74E
:10021000817F846083BF83B7816083BF889583B704
:100220008E7F83BF089583EB90E09093F5038093D6
:10023000F40308958AE591E00E946900089588EB2F
:1002400091E00E94690086EC91E00E94690083EDD4
:1002500091E00E9469008AEE91E00E94690088EABC
:1002600091E00E9469000E945E00823381F018F4E0
:10027000813331F021C0833389F08D36B1F01CC059
:1002800081E691E09093F5038093F403089588EF5D
:1002900091E09093F5038093F403089588E891E04A
:1002A0009093F5038093F403089583EB90E090938B
:1002B000F5038093F40308958AE591E00E946900B4
:1002C0000895569A87E092E00E94690087E192E0E3
:1002D0000E94690081E292E00E9469000E945E0033
:1002E0008E3651F0893779F456988FE191E09093EA
:1002F000F5038093F40308958FE191E09093F50363
:100300008093F40308958AE591E00E9469000895BE
:10031000CF93DF93569A8AE292E00E94690083E4C9
:1003200092E00E9469008DE492E00E9469008AE5F3
:1003300092E00E94690085E692E00E94690082E7EF
:1003400092E00E94690088EA91E00E9469000E94A0
:100350005E00833399F028F4813351F0823359F0F1
:1003600035C0823629F18D3651F1843379F509C0D3
:100370008AE187BD2FC080E887BD2CC086EE87BD8F
:1003800029C08DE792E00E9469008BEA92E00E940A
:100390006900C0E0D0E0CE010E947F00CE010E9443
:1003A000FB036AE070E00E94A602619567BD12C07F
:1003B00088EF91E09093F5038093F4030BC083EBF7
:1003C00090E09093F5038093F40304C08AE591E0F4
:1003D0000E946900DF91CF910895009741F0EFEC02
:1003E000F7E03197F1F700C000000197C1F70895D9
:1003F000CF93DF9385EC92E00E94690088ED92E054
:100400000E9469008CEE92E00E94690081E093E016
:100410000E94690082E792E00E94690088EA91E008
:100420000E9469000E945E00833389F128F48133C1
:1004300041F0823369F040C0823681F18D36A9F1F6
:100440003BC081E691E09093F5038093F40338C0BC
:1004500056982FE788E391E0215080409040E1F7E3
:1004600000C000008AE193E00E9469008BEA92E0FC
:100470000E946900C0E0D0E0CE010E947F00569A41
:10048000CE010E94FB030E94ED01569819C083E63D
:1004900092E09093F5038093F40312C08FE191E012
:1004A0009093F5038093F4030BC083EB90E090935B
:1004B000F5038093F40304C08AE591E00E9469008B
:1004C000DF91CF910895CF93DF9356988BE493E01B
:1004D0000E94690083E793E00E9469008BEA92E042
:1004E0000E94690080E090E00E947F0086EA93E02D
:1004F0000E9469008BEA92E00E94690080E090E02F
:100500000E947F008DED93E00E9469008091C00001
:1005100088239CF0C0ECD0E0269A80E090E00E9416
:10052000FB030E94ED01569880E090E00E94FB03DF
:100530000E94ED01888188237CF788EF91E09093F9
:10054000F5038093F403DF91CF91089597FB072E75
:1005500016F4009407D077FD09D00E94BA0207FC78
:1005600005D03EF4909581959F4F089570956195C3
:100570007F4F0895AA1BBB1B51E107C0AA1FBB1FD9
:10058000A617B70710F0A61BB70B881F991F5A951F
:10059000A9F780959095BC01CD010895CF93DF9385
:1005A0008230910510F482E090E0E091F803F09140
:1005B000F90320E030E0C0E0D0E0309711F1408155
:1005C000518148175907C0F04817590761F48281D3
:1005D0009381209719F09B838A832BC09093F90312
:1005E0008093F80326C02115310519F042175307EF
:1005F00018F49A01BE01DF01EF010280F381E02DC2
:10060000DCCF2115310509F1281B390B24303105C8
:1006100090F412968D919C9113976115710521F0BC
:10062000FB019383828304C09093F9038093F803C2
:10063000FD01329644C0FD01E20FF31F81939193B7
:10064000225031092D933C933AC02091F60330910A
:10065000F703232B41F420910201309103013093E1
:10066000F7032093F6032091000130910101211539
:10067000310541F42DB73EB7409104015091050179
:10068000241B350BE091F603F091F703E217F30713
:10069000A0F42E1B3F0B2817390778F0AC014E5FF2
:1006A0005F4F2417350748F04E0F5F1F5093F70335
:1006B0004093F6038193919302C0E0E0F0E0CF0114
:1006C000DF91CF9108950F931F93CF93DF930097FE
:1006D00009F48CC0FC013297138212820091F80356
:1006E0001091F9030115110581F420813181820FE8
:1006F000931F2091F6033091F7032817390779F5F6
:10070000F093F703E093F60371C0D80140E050E0A6
:10071000AE17BF0750F412962D913C911397AD017F
:100720002115310509F1D901F3CF9D01DA01338398
:10073000228360817181860F971F8217930769F466
:10074000EC0128813981260F371F2E5F3F4F3183FF
:1007500020838A819B8193838283452B29F4F093A4
:10076000F903E093F80342C01396FC93EE931297BB
:10077000ED01499159919E01240F351FE217F307AE
:1007800071F480819181840F951F029611969C933C
:100790008E938281938113969C938E931297E0E0BF
:1007A000F0E0D80112968D919C911397009719F063
:1007B000F8018C01F6CF8D919C9198012E5F3F4FEF
:1007C000820F931F2091F6033091F7032817390702
:1007D00069F4309729F41092F9031092F80302C0DB
:1007E000138212821093F7030093F603DF91CF91E7
:1007F0001F910F910895FC0188279927E894219172
:100800002032E9F3293010F02E30C8F32B3241F0BA
:100810002D3239F4689404C00E941904820F911D8E
:10082000219120532A30C0F31EF4909581959F4F5B
:1008300008957AE0979F902D879F802D910D112428
:060840000895F894FFCFBB
:100846000000FA0320000A4D61696E204D656E7541
:100856003A000A093C613E2048656C6C6F20576F70
:10086600726C6421000A093C733E20536C65657006
:10087600206F7074696F6E73000A093C643E204CE9
:10088600454420636F6E74726F6C000A48656C6C29
:100896006F20576F726C64210A000A4572726F727C
:1008A6002C206E6F7420616E20617661696C6162C6
:1008B6006C65206F7074696F6E0A000A536C65650B
:1008C60070204F7074696F6E733A000A093C313EAE
:1008D60020536C656570000A093C323E20506F77E4
:1008E600657220646F776E000A093C6D3E204D618B
:1008F600696E206D656E75000A4C454420434F4E67
:1009060054524F4C3A000A093C313E204C45442093
:100916006F6E000A093C323E204D6F7265204C45D1
:1009260044206F7074696F6E73000A093C333E2071
:100936004C4544206272696768746E657373206FF4
:100946007074696F6E73000A5475726E204C45445C
:10095600204F66663F3A000A093C793E2079657366
:10096600000A093C6E3E206E6F000A4C4544206228
:1009760072696768746E657373204F7074696F6E01
:10098600733A000A093C313E204C6F77000A093C55
:10099600323E204D656469756D000A093C333E2080
:1009A60048696768000A093C343E20437573746FD2
:1009B6006D000A093C623E204261636B000A486F83
:1009C600772062726967687420776F756C64207926
:1009D6006F75206C696B6520746865204C45443FD3
:1009E600202830202D2031303029000A50726573BE
:1009F6007320456E74657220616674657220696E37
:100A06007075742E000A4D6F7265204C4544204F58
:100A16007074696F6E733A000A093C313E204C458A
:100A26004420616C77617973206F6E000A093C324D
:100A36003E204C454420626C696E6B206F6E636588
:100A4600000A093C333E204C454420626C696E6BBB
:100A56002066756E6374696F6E000A486F77206C46
:100A66006F6E6720776F756C6420796F75206C697F
:100A76006B6520746865204C454420746F20626C59
:100A8600696E6B20696E206D733F000A5468697346
:100A9600206F7074696F6E2072657065617465642D
:100AA6006C7920626C696E6B7320746865204C45A6
:100AB600443F000A486F77206C6F6E6720776F752A
:100AC6006C6420796F75206C696B6520746865208D
:100AD6004C454420746F2073746179206F6E2069D1
:100AE6006E206D733F000A486F77206672657175D8
:100AF600656E746C7920776F756C6420796F7520DC
:100B06006C696B6520746865204C454420746F20C1
:100B1600626C696E6B20696E206D733F000A5072BD
:100B260065737320616E79206B657920746F20730D
:040B3600746F700068
:00000001FF
