S01000005465726D696E616C2E73726563D8
S11300000C9434000C9451000C9451000C94C600D0
S11300100C9451000C9451000C9451000C94510018
S11300200C9451000C9451000C9451000C94510008
S11300300C9451000C9451000C9451000C945100F8
S11300400C9451000C9451000C9451000C945100E8
S11300500C9451000C9451000C9451000C945100D8
S11300600C9451000C94510011241FBECFEFD8E022
S1130070DEBFCDBF14E0A0E0B1E0EEE5F9E002C0E0
S113008005900D92A230B107D9F724E0A2E0B4E0C4
S113009001C01D92A830B207E1F70E94D0000C9471
S11300A0AD040C940000519A50981092C50083E35B
S11300B08093C400613019F0623039F00CC0E0EC78
S11300C0F0E08081826080830BC0E2ECF0E080810C
S11300D08064808305C0E0ECF0E080818D7F8083C4
S11300E0442329F0E1ECF0E0808180688083E1EC36
S11300F0F0E0808188618083E2ECF0E080818660BA
S113010080830895E0ECF0E080818823ECF780910F
S1130110C6000895E0ECF0E0908195FFFDCF809358
S1130120C60008950F931F93CF93FC018081882309
S113013059F08F01C0E00E948A00CF5FF801EC0FF4
S1130140F11D80818111F7CFCF911F910F910895F7
S11301500F931F93CF93DF93FC0120812A3071F01A
S1130160EC018E010E94820089938D3041F00E943F
S11301708A008E0188818A30A1F701C08C01F801C0
S11301801082DF91CF911F910F9108951F920F92CA
S11301900FB60F9211240F900FBE0F901F90189559
S11301A01AB884E084B9EBE6F0E080818260808351
S11301B0E8E6F0E080818160808384B5836884BD53
S11301C085B5816085BD86EE87BD40E060E080E84E
S11301D095E20E945300789488EF90E09093030492
S11301E080930204E0910204F09103040995FACF8C
S11301F086E091E00E94920083E191E00E949200E7
S113020087E291E00E9492008CE391E00E949200C8
S11302100E948200843681F0833739F0813699F464
S11302208FE491E00E949200089588E291E0909317
S1130230030480930204089586E891E090930304F4
S11302408093020408958FE591E00E94920008953E
S113025081E891E00E94920082E991E00E9492007C
S11302608FE991E00E94920081EB91E00E9492005C
S11302700E948200823311F18D3609F43BC0813330
S113028009F03FC082EC91E00E9492008FE19EE46D
S11302900197F1F700C0000083B7817F866083BFB8
S11302A083B7816083BF889583B78E7F83BF8FECCC
S11302B097E00197F1F700C00000089582EC91E007
S11302C00E9492008FE19EE40197F1F700C00000C4
S11302D083B7817F846083BF83B7816083BF889540
S11302E083B78E7F83BF8FEC97E00197F1F700C04F
S11302F00000089588EF90E0909303048093020433
S113030008958FE591E00E949200089582EE91E0B5
S11303100E94920081EF91E00E9492008FEF91E0A1
S11303200E94920087E192E00E94920081EB91E0AA
S11303300E9492000E948200823381F018F481337B
S113034031F021C0833389F08D36B1F01CC088ECC4
S113035091E0909303048093020408958BE692E065
S1130360909303048093020408958FEE91E0909398
S1130370030480930204089588EF90E090930304AB
S11303808093020408958FE591E00E9492000895FD
S1130390569A85E392E00E94920086E492E00E94DD
S11303A0920081E592E00E9492000E9482008E36C3
S11303B051F0893779F4569886E891E090930304D4
S11303C080930204089586E891E090930304809357
S11303D0020408958FE591E00E9492000895CF935E
S11303E0DF9388E090E00E945A03EC01569A8BE573
S11303F092E00E94920085E792E00E94920080E8D9
S113040092E00E9492008EE892E00E9492008AE9B3
S113041092E00E94920088EA92E00E94920081EBAE
S113042091E00E9492000E948200833399F028F4A4
S1130430813351F0823359F039C0823649F18D3617
S113044071F1843399F509C08AE187BD33C080E82E
S113045087BD30C086EE87BD2DC084EB92E00E943C
S1130460920082EE92E00E949200CE010E94A800C7
S1130470CE010E9487042FEFAC01249FC001259F69
S1130480900D112464E670E00E94320367BD12C02F
S11304908BE692E090930304809302040BC088EFF0
S11304A090E0909303048093020404C08FE591E0EC
S11304B00E949200CE010E94EF03DF91CF91089534
S11304C0009741F0EFECF7E03197F1F700C000003E
S11304D00197C1F70895CF93DF9388E090E00E94DD
S11304E05A03EC018EEF92E00E94920082E193E0C5
S11304F00E94920087E293E00E9492008DE393E0D1
S11305000E94920088EA92E00E94920081EB91E0BE
S11305100E9492000E948200833331F128F48133D7
S113052041F0823369F035C0823629F18D3651F1BC
S113053030C088EC91E090930304809302042DC0B2
S1130540569887E593E00E94920082EE92E00E9422
S11305509200CE010E94A800569ACE010E94870400
S11305600E946002569819C083ED92E090930304B0
S11305708093020412C086E891E090930304809370
S113058002040BC088EF90E090930304809302046C
S113059004C08FE591E00E949200CE010E94EF0317
S11305A0DF91CF910895EF92FF920F931F93CF9312
S11305B0DF9388E090E00E945A038C0188E090E089
S11305C00E945A037C01569889E893E00E949200A5
S11305D087E593E00E94920082EE92E00E949200EE
S11305E0C8010E94A80082EB93E00E94920082EE70
S11305F092E00E949200C7010E94A8008AEE93E054
S11306000E9492008091C00088238CF0C0ECD0E05E
S1130610569AC8010E9487040E9460025698C70136
S11306200E9487040E946002988199238CF7E1EC70
S1130630F0E080818F7E80838081806180838BE67F
S113064092E09093030480930204C8010E94EF0394
S1130650C7010E94EF03DF91CF911F910F91FF908B
S1130660EF90089597FB072E16F4009407D077FDBA
S113067009D00E94460307FC05D03EF4909581956D
S11306809F4F0895709561957F4F0895AA1BBB1BDA
S113069051E107C0AA1FBB1FA617B70710F0A61B7E
S11306A0B70B881F991F5A95A9F780959095BC019F
S11306B0CD010895CF93DF938230910510F482E049
S11306C090E0E0910604F091070420E030E0C0E0FF
S11306D0D0E0309711F14081518148175907C0F09B
S11306E04817590761F482819381209719F09B83FD
S11306F08A832BC0909307048093060426C0211597
S1130700310519F04217530718F49A01BE01DF01AD
S1130710EF010280F381E02DDCCF2115310509F1D1
S1130720281B390B2430310590F412968D919C913D
S113073013976115710521F0FB019383828304C033
S11307409093070480930604FD01329644C0FD0192
S1130750E20FF31F81939193225031092D933C931F
S11307603AC02091040430910504232B41F42091D4
S11307700201309103013093050420930404209175
S11307800001309101012115310541F42DB73EB727
S11307904091040150910501241B350BE0910404A0
S11307A0F0910504E217F307A0F42E1B3F0B281762
S11307B0390778F0AC014E5F5F4F2417350748F0D6
S11307C04E0F5F1F5093050440930404819391934B
S11307D002C0E0E0F0E0CF01DF91CF9108950F93E4
S11307E01F93CF93DF93009709F48CC0FC013297D9
S11307F01382128200910604109107040115110559
S113080081F420813181820F931F2091040430915F
S113081005042817390779F5F0930504E0930404D7
S113082071C0D80140E050E0AE17BF0750F41296F3
S11308302D913C911397AD012115310509F1D90191
S1130840F3CF9D01DA013383228360817181860FA6
S1130850971F8217930769F4EC0128813981260FC9
S1130860371F2E5F3F4F318320838A819B8193837F
S11308708283452B29F4F0930704E093060442C0D5
S11308801396FC93EE931297ED01499159919E01B1
S1130890240F351FE217F30771F480819181840FCF
S11308A0951F029611969C938E9382819381139641
S11308B09C938E931297E0E0F0E0D80112968D910C
S11308C09C911397009719F0F8018C01F6CF8D9144
S11308D09C9198012E5F3F4F820F931F2091040437
S11308E0309105042817390769F4309729F41092D8
S11308F007041092060402C01382128210930504A6
S113090000930404DF91CF911F910F910895FC018E
S113091088279927E89421912032E9F3293010F0AF
S11309202E30C8F32B3241F02D3239F4689404C0D0
S11309300E94A504820F911D219120532A30C0F3F7
S11309401EF4909581959F4F08957AE0979F902D7E
S1110950879F802D910D11240895F894FFCFF8
S113095E0000080420000A0D4D61696E204D656E7D
S113096E753A000A0D093C613E2048656C6C6F2097
S113097E576F726C6421000A0D093C733E20536C50
S113098E656570206F7074696F6E73000A0D093C93
S113099E643E204C454420636F6E74726F6C000A83
S11309AE0D48656C6C6F20576F726C64210A000AD7
S11309BE0D4572726F722C206E6F7420616E206101
S11309CE7661696C61626C65206F7074696F6E0A12
S11309DE000A0D536C656570204F7074696F6E73E9
S11309EE3A000A0D093C313E20536C656570000ACD
S11309FE0D093C323E20506F77657220646F776E1E
S1130A0E000A0D093C6D3E204D61696E206D656EC8
S1130A1E75000A0D50726573732068617264776194
S1130A2E726520627574746F6E20746F2077616BBB
S1130A3E65000A0D4C454420434F4E54524F4C3AD8
S1130A4E000A0D093C313E204C4544206F6E000ACD
S1130A5E0D093C323E204D6F7265204C4544206F8B
S1130A6E7074696F6E73000A0D093C333E204C4559
S1130A7E44206272696768746E657373206F707454
S1130A8E696F6E73000A0D5475726E204C454420C6
S1130A9E4F66663F3A000A0D093C793E207965732C
S1130AAE000A0D093C6E3E206E6F000A0D4C454443
S1130ABE206272696768746E657373204F7074690F
S1130ACE6F6E733A000A0D093C313E204C6F77006D
S1130ADE0A0D093C323E204D656469756D000A0DA0
S1130AEE093C333E2048696768000A0D093C343ED0
S1130AFE20437573746F6D000A0D093C623E2042EB
S1130B0E61636B000A0D486F7720627269676874BF
S1130B1E20776F756C6420796F75206C696B652016
S1130B2E746865204C45443F202830202D203939E7
S1130B3E29000A0D507265737320456E7465722018
S1130B4E616674657220696E7075743A20000A0DC0
S1130B5E4D6F7265204C4544204F7074696F6E73EF
S1130B6E3A000A0D093C313E204C454420616C7715
S1130B7E617973206F6E000A0D093C323E204C459C
S1130B8E4420626C696E6B206F6E6365000A0D09FA
S1130B9E3C333E204C454420626C696E6B20667576
S1130BAE6E6374696F6E000A0D486F77206C6F6EFA
S1130BBE6720776F756C6420796F75206C696B652F
S1130BCE20746865204C454420746F20626C696EF5
S1130BDE6B20696E206D733F000A0D546869732093
S1130BEE6F7074696F6E2072657065617465646C84
S1130BFE7920626C696E6B7320746865204C454471
S1130C0E3F000A0D486F77206672657175656E74C4
S1130C1E6C7920776F756C6420796F75206C696BB5
S1130C2E6520746865204C454420746F20626C699D
S1130C3E6E6B20696E206D733F000A0D50726573E2
S1130C4E7320616E79206B657920746F2073746FD5
S1050C5E700020
S9030000FC
